{
  "contractName": "Bridge",
  "abi": [
    {
      "inputs": [
        {
          "internalType": "address",
          "name": "_signer",
          "type": "address"
        }
      ],
      "stateMutability": "nonpayable",
      "type": "constructor"
    },
    {
      "anonymous": false,
      "inputs": [
        {
          "indexed": true,
          "internalType": "address",
          "name": "tokenAddress",
          "type": "address"
        }
      ],
      "name": "AddnewToken",
      "type": "event"
    },
    {
      "anonymous": false,
      "inputs": [
        {
          "indexed": true,
          "internalType": "address",
          "name": "tokenAddress",
          "type": "address"
        }
      ],
      "name": "RemoveToken",
      "type": "event"
    },
    {
      "anonymous": false,
      "inputs": [
        {
          "indexed": true,
          "internalType": "address",
          "name": "sender",
          "type": "address"
        },
        {
          "indexed": true,
          "internalType": "address",
          "name": "receiver",
          "type": "address"
        },
        {
          "indexed": false,
          "internalType": "uint256",
          "name": "amount",
          "type": "uint256"
        },
        {
          "indexed": false,
          "internalType": "uint256",
          "name": "nonce",
          "type": "uint256"
        },
        {
          "indexed": false,
          "internalType": "bytes32",
          "name": "secretData",
          "type": "bytes32"
        }
      ],
      "name": "TransferToken",
      "type": "event"
    },
    {
      "anonymous": false,
      "inputs": [
        {
          "indexed": true,
          "internalType": "address",
          "name": "from",
          "type": "address"
        },
        {
          "indexed": true,
          "internalType": "address",
          "name": "receiver",
          "type": "address"
        },
        {
          "indexed": false,
          "internalType": "uint256",
          "name": "amount",
          "type": "uint256"
        },
        {
          "indexed": false,
          "internalType": "uint256",
          "name": "nonces",
          "type": "uint256"
        },
        {
          "indexed": false,
          "internalType": "bytes32",
          "name": "secretData",
          "type": "bytes32"
        }
      ],
      "name": "WithdrawToken",
      "type": "event"
    },
    {
      "inputs": [
        {
          "internalType": "uint256",
          "name": "",
          "type": "uint256"
        }
      ],
      "name": "availableTokens",
      "outputs": [
        {
          "internalType": "address",
          "name": "",
          "type": "address"
        }
      ],
      "stateMutability": "view",
      "type": "function",
      "constant": true
    },
    {
      "inputs": [],
      "name": "isOwner",
      "outputs": [
        {
          "internalType": "bool",
          "name": "",
          "type": "bool"
        }
      ],
      "stateMutability": "view",
      "type": "function",
      "constant": true
    },
    {
      "inputs": [],
      "name": "owner",
      "outputs": [
        {
          "internalType": "address",
          "name": "",
          "type": "address"
        }
      ],
      "stateMutability": "view",
      "type": "function",
      "constant": true
    },
    {
      "inputs": [
        {
          "internalType": "uint256",
          "name": "",
          "type": "uint256"
        }
      ],
      "name": "processNonce",
      "outputs": [
        {
          "internalType": "bool",
          "name": "",
          "type": "bool"
        }
      ],
      "stateMutability": "view",
      "type": "function",
      "constant": true
    },
    {
      "inputs": [
        {
          "internalType": "bytes32",
          "name": "",
          "type": "bytes32"
        }
      ],
      "name": "processSecretData",
      "outputs": [
        {
          "internalType": "bool",
          "name": "",
          "type": "bool"
        }
      ],
      "stateMutability": "view",
      "type": "function",
      "constant": true
    },
    {
      "inputs": [
        {
          "internalType": "address",
          "name": "newOwner",
          "type": "address"
        }
      ],
      "name": "transferOwnership",
      "outputs": [],
      "stateMutability": "nonpayable",
      "type": "function"
    },
    {
      "inputs": [
        {
          "internalType": "address",
          "name": "_token",
          "type": "address"
        }
      ],
      "name": "addIRC20Token",
      "outputs": [],
      "stateMutability": "nonpayable",
      "type": "function"
    },
    {
      "inputs": [
        {
          "internalType": "address",
          "name": "_token",
          "type": "address"
        }
      ],
      "name": "removeIRC20Token",
      "outputs": [],
      "stateMutability": "nonpayable",
      "type": "function"
    },
    {
      "inputs": [],
      "name": "getAvailableTokens",
      "outputs": [
        {
          "internalType": "address[]",
          "name": "",
          "type": "address[]"
        }
      ],
      "stateMutability": "view",
      "type": "function",
      "constant": true
    },
    {
      "inputs": [
        {
          "internalType": "address",
          "name": "_token",
          "type": "address"
        }
      ],
      "name": "tokenExists",
      "outputs": [
        {
          "internalType": "bool",
          "name": "",
          "type": "bool"
        }
      ],
      "stateMutability": "view",
      "type": "function",
      "constant": true
    },
    {
      "inputs": [
        {
          "internalType": "address",
          "name": "from",
          "type": "address"
        },
        {
          "internalType": "uint256",
          "name": "_amount",
          "type": "uint256"
        },
        {
          "internalType": "address",
          "name": "fromToken",
          "type": "address"
        },
        {
          "internalType": "uint256",
          "name": "_nonce",
          "type": "uint256"
        }
      ],
      "name": "transferToken",
      "outputs": [],
      "stateMutability": "nonpayable",
      "type": "function"
    },
    {
      "inputs": [
        {
          "internalType": "address",
          "name": "from",
          "type": "address"
        },
        {
          "internalType": "address",
          "name": "to",
          "type": "address"
        },
        {
          "internalType": "uint256",
          "name": "amount",
          "type": "uint256"
        },
        {
          "internalType": "uint256",
          "name": "nonce",
          "type": "uint256"
        },
        {
          "internalType": "bytes32",
          "name": "secretData",
          "type": "bytes32"
        },
        {
          "internalType": "bytes32",
          "name": "messageHash",
          "type": "bytes32"
        },
        {
          "internalType": "uint8",
          "name": "v",
          "type": "uint8"
        },
        {
          "internalType": "bytes32",
          "name": "r",
          "type": "bytes32"
        },
        {
          "internalType": "bytes32",
          "name": "s",
          "type": "bytes32"
        },
        {
          "internalType": "address",
          "name": "selectedToken",
          "type": "address"
        }
      ],
      "name": "RedeemToken",
      "outputs": [],
      "stateMutability": "nonpayable",
      "type": "function"
    }
  ],
  "bytecode": "0x60806040523480156200001157600080fd5b5060405162001c9238038062001c928339818101604052810190620000379190620000d6565b336000806101000a81548173ffffffffffffffffffffffffffffffffffffffff021916908373ffffffffffffffffffffffffffffffffffffffff16021790555080600260006101000a81548173ffffffffffffffffffffffffffffffffffffffff021916908373ffffffffffffffffffffffffffffffffffffffff1602179055505062000150565b600081519050620000d08162000136565b92915050565b600060208284031215620000e957600080fd5b6000620000f984828501620000bf565b91505092915050565b60006200010f8262000116565b9050919050565b600073ffffffffffffffffffffffffffffffffffffffff82169050919050565b620001418162000102565b81146200014d57600080fd5b50565b611b3280620001606000396000f3fe608060405234801561001057600080fd5b50600436106100b45760003560e01c8063b33f78ca11610071578063b33f78ca1461018d578063bc172c63146101bd578063dd7f5288146101d9578063e35568cb14610209578063f2fde38b14610227578063f8c24e5e14610243576100b4565b8063600ecdee146100b957806387f6cb6a146100d55780638da5cb5b146100f15780638f32d59b1461010f578063ad64d0681461012d578063b286952b1461015d575b600080fd5b6100d360048036038101906100ce91906110f8565b61025f565b005b6100ef60048036038101906100ea91906110f8565b61051d565b005b6100f9610656565b6040516101069190611677565b60405180910390f35b61011761067f565b604051610124919061173d565b60405180910390f35b610147600480360381019061014291906112b1565b6106d6565b6040516101549190611677565b60405180910390f35b61017760048036038101906101729190611288565b610715565b604051610184919061173d565b60405180910390f35b6101a760048036038101906101a291906110f8565b610735565b6040516101b4919061173d565b60405180910390f35b6101d760048036038101906101d291906111fc565b61081a565b005b6101f360048036038101906101ee91906112b1565b610b87565b604051610200919061173d565b60405180910390f35b610211610ba7565b60405161021e919061171b565b60405180910390f35b610241600480360381019061023c91906110f8565b610c35565b005b61025d60048036038101906102589190611121565b610d2f565b005b61026761067f565b6102a6576040517f08c379a000000000000000000000000000000000000000000000000000000000815260040161029d9061183d565b60405180910390fd5b6001600580549050111561051a5760005b600580549050811015610518578173ffffffffffffffffffffffffffffffffffffffff1660058281548110610315577f4e487b7100000000000000000000000000000000000000000000000000000000600052603260045260246000fd5b9060005260206000200160009054906101000a900473ffffffffffffffffffffffffffffffffffffffff1673ffffffffffffffffffffffffffffffffffffffff16141561050557600560016005805490506103709190611974565b815481106103a7577f4e487b7100000000000000000000000000000000000000000000000000000000600052603260045260246000fd5b9060005260206000200160009054906101000a900473ffffffffffffffffffffffffffffffffffffffff166005828154811061040c577f4e487b7100000000000000000000000000000000000000000000000000000000600052603260045260246000fd5b9060005260206000200160006101000a81548173ffffffffffffffffffffffffffffffffffffffff021916908373ffffffffffffffffffffffffffffffffffffffff160217905550600580548061048c577f4e487b7100000000000000000000000000000000000000000000000000000000600052603160045260246000fd5b6001900381819060005260206000200160006101000a81549073ffffffffffffffffffffffffffffffffffffffff021916905590558173ffffffffffffffffffffffffffffffffffffffff167f4eb129c82dcd3eedb52df2b0e6fb4cfa41ac64ee9d63ff081acbb1877e85d79b60405160405180910390a25b808061051090611a07565b9150506102b7565b505b50565b61052561067f565b610564576040517f08c379a000000000000000000000000000000000000000000000000000000000815260040161055b9061183d565b60405180910390fd5b61056d81610735565b156105ad576040517f08c379a00000000000000000000000000000000000000000000000000000000081526004016105a49061185d565b60405180910390fd5b6005819080600181540180825580915050600190039060005260206000200160009091909190916101000a81548173ffffffffffffffffffffffffffffffffffffffff021916908373ffffffffffffffffffffffffffffffffffffffff1602179055508073ffffffffffffffffffffffffffffffffffffffff167fa9e02beb94952d5fb6ea8aaf6dfac47e027aa383eeaad0c831bcf0d73c12e14660405160405180910390a250565b60008060009054906101000a900473ffffffffffffffffffffffffffffffffffffffff16905090565b60008060009054906101000a900473ffffffffffffffffffffffffffffffffffffffff1673ffffffffffffffffffffffffffffffffffffffff163373ffffffffffffffffffffffffffffffffffffffff1614905090565b600581815481106106e657600080fd5b906000526020600020016000915054906101000a900473ffffffffffffffffffffffffffffffffffffffff1681565b60046020528060005260406000206000915054906101000a900460ff1681565b6000600160058054905011156108145760005b60058054905081101561080a578273ffffffffffffffffffffffffffffffffffffffff16600582815481106107a6577f4e487b7100000000000000000000000000000000000000000000000000000000600052603260045260246000fd5b9060005260206000200160009054906101000a900473ffffffffffffffffffffffffffffffffffffffff1673ffffffffffffffffffffffffffffffffffffffff1614156107f7576001915050610815565b808061080290611a07565b915050610748565b5060009050610815565b5b919050565b81600160006101000a81548173ffffffffffffffffffffffffffffffffffffffff021916908373ffffffffffffffffffffffffffffffffffffffff16021790555061086482610735565b6108a3576040517f08c379a000000000000000000000000000000000000000000000000000000000815260040161089a906117bd565b60405180910390fd5b600015156003600083815260200190815260200160002060009054906101000a900460ff1615151461090a576040517f08c379a0000000000000000000000000000000000000000000000000000000008152600401610901906117dd565b60405180910390fd5b82600160009054906101000a900473ffffffffffffffffffffffffffffffffffffffff1673ffffffffffffffffffffffffffffffffffffffff1663dd62ed3e86306040518363ffffffff1660e01b8152600401610968929190611692565b60206040518083038186803b15801561098057600080fd5b505afa158015610994573d6000803e3d6000fd5b505050506040513d601f19601f820116820180604052508101906109b891906112da565b146109f8576040517f08c379a00000000000000000000000000000000000000000000000000000000081526004016109ef906117fd565b60405180910390fd5b6000818442610a07919061191e565b610a11919061191e565b604051602001610a21919061165c565b604051602081830303815290604052805190602001209050600160009054906101000a900473ffffffffffffffffffffffffffffffffffffffff1673ffffffffffffffffffffffffffffffffffffffff166323b872dd8630876040518463ffffffff1660e01b8152600401610a98939291906116bb565b602060405180830381600087803b158015610ab257600080fd5b505af1158015610ac6573d6000803e3d6000fd5b505050506040513d601f19601f82011682018060405250810190610aea919061125f565b5060016003600084815260200190815260200160002060006101000a81548160ff0219169083151502179055503073ffffffffffffffffffffffffffffffffffffffff168573ffffffffffffffffffffffffffffffffffffffff167ff0ccfa69da72de9324a83f3abe17de8f384d080c374e1f7ff26d3f040d5f8eff868585604051610b789392919061189d565b60405180910390a35050505050565b60036020528060005260406000206000915054906101000a900460ff1681565b60606005805480602002602001604051908101604052809291908181526020018280548015610c2b57602002820191906000526020600020905b8160009054906101000a900473ffffffffffffffffffffffffffffffffffffffff1673ffffffffffffffffffffffffffffffffffffffff1681526020019060010190808311610be1575b5050505050905090565b610c3d61067f565b610c7c576040517f08c379a0000000000000000000000000000000000000000000000000000000008152600401610c739061183d565b60405180910390fd5b600073ffffffffffffffffffffffffffffffffffffffff168173ffffffffffffffffffffffffffffffffffffffff161415610cec576040517f08c379a0000000000000000000000000000000000000000000000000000000008152600401610ce39061179d565b60405180910390fd5b806000806101000a81548173ffffffffffffffffffffffffffffffffffffffff021916908373ffffffffffffffffffffffffffffffffffffffff16021790555050565b80600160006101000a81548173ffffffffffffffffffffffffffffffffffffffff021916908373ffffffffffffffffffffffffffffffffffffffff160217905550610d7981610735565b610db8576040517f08c379a0000000000000000000000000000000000000000000000000000000008152600401610daf906117bd565b60405180910390fd5b600015156003600089815260200190815260200160002060009054906101000a900460ff16151514610e1f576040517f08c379a0000000000000000000000000000000000000000000000000000000008152600401610e169061181d565b60405180910390fd5b600260009054906101000a900473ffffffffffffffffffffffffffffffffffffffff1673ffffffffffffffffffffffffffffffffffffffff1660018686868660405160008152602001604052604051610e7b9493929190611758565b6020604051602081039080840390855afa158015610e9d573d6000803e3d6000fd5b5050506020604051035173ffffffffffffffffffffffffffffffffffffffff1614610efd576040517f08c379a0000000000000000000000000000000000000000000000000000000008152600401610ef49061187d565b60405180910390fd5b600160009054906101000a900473ffffffffffffffffffffffffffffffffffffffff1673ffffffffffffffffffffffffffffffffffffffff1663a9059cbb8a8a6040518363ffffffff1660e01b8152600401610f5a9291906116f2565b602060405180830381600087803b158015610f7457600080fd5b505af1158015610f88573d6000803e3d6000fd5b505050506040513d601f19601f82011682018060405250810190610fac919061125f565b508873ffffffffffffffffffffffffffffffffffffffff168a73ffffffffffffffffffffffffffffffffffffffff167ff9ba106b0bdfbcc3e2786c5c3a88622ce96f3063c23d5d9e507c1d2da5caad2e8a8a8a60405161100e9392919061189d565b60405180910390a360016003600089815260200190815260200160002060006101000a81548160ff02191690831515021790555060016004600088815260200190815260200160002060006101000a81548160ff02191690831515021790555050505050505050505050565b60008135905061108981611a89565b92915050565b60008151905061109e81611aa0565b92915050565b6000813590506110b381611ab7565b92915050565b6000813590506110c881611ace565b92915050565b6000815190506110dd81611ace565b92915050565b6000813590506110f281611ae5565b92915050565b60006020828403121561110a57600080fd5b60006111188482850161107a565b91505092915050565b6000806000806000806000806000806101408b8d03121561114157600080fd5b600061114f8d828e0161107a565b9a505060206111608d828e0161107a565b99505060406111718d828e016110b9565b98505060606111828d828e016110b9565b97505060806111938d828e016110a4565b96505060a06111a48d828e016110a4565b95505060c06111b58d828e016110e3565b94505060e06111c68d828e016110a4565b9350506101006111d88d828e016110a4565b9250506101206111ea8d828e0161107a565b9150509295989b9194979a5092959850565b6000806000806080858703121561121257600080fd5b60006112208782880161107a565b9450506020611231878288016110b9565b93505060406112428782880161107a565b9250506060611253878288016110b9565b91505092959194509250565b60006020828403121561127157600080fd5b600061127f8482850161108f565b91505092915050565b60006020828403121561129a57600080fd5b60006112a8848285016110a4565b91505092915050565b6000602082840312156112c357600080fd5b60006112d1848285016110b9565b91505092915050565b6000602082840312156112ec57600080fd5b60006112fa848285016110ce565b91505092915050565b600061130f838361131b565b60208301905092915050565b611324816119a8565b82525050565b611333816119a8565b82525050565b6000611344826118e4565b61134e81856118fc565b9350611359836118d4565b8060005b8381101561138a5781516113718882611303565b975061137c836118ef565b92505060018101905061135d565b5085935050505092915050565b6113a0816119ba565b82525050565b6113af816119c6565b82525050565b60006113c260268361190d565b91507f4f776e61626c653a206e6577206f776e657220697320746865207a65726f206160008301527f64647265737300000000000000000000000000000000000000000000000000006020830152604082019050919050565b6000611428601b8361190d565b91507f5468697320746f6b656e206973206e6f7420617661696c61626c6500000000006000830152602082019050919050565b600061146860228361190d565b91507f54686973206e6f6e636520697320616c726561647920696e2070726f6363657360008301527f73200000000000000000000000000000000000000000000000000000000000006020830152604082019050919050565b60006114ce601c8361190d565b91507f696e737566666963656e7420616d6f756e7420616c6c6f77616e6365000000006000830152602082019050919050565b600061150e601b8361190d565b91507f54686973206e6f6e636520416c72656164792070726f636573732000000000006000830152602082019050919050565b600061154e60208361190d565b91507f4f776e61626c653a2063616c6c6572206973206e6f7420746865206f776e65726000830152602082019050919050565b600061158e601a8361190d565b91507f7468697320746f6b656e20616c726561647920696e206c6973740000000000006000830152602082019050919050565b60006115ce60218361190d565b91507f54686520616d6f756e74206f7220767273206973206e6f7420636f727265637460008301527f20000000000000000000000000000000000000000000000000000000000000006020830152604082019050919050565b611630816119f0565b82525050565b611647611642826119f0565b611a50565b82525050565b611656816119fa565b82525050565b60006116688284611636565b60208201915081905092915050565b600060208201905061168c600083018461132a565b92915050565b60006040820190506116a7600083018561132a565b6116b4602083018461132a565b9392505050565b60006060820190506116d0600083018661132a565b6116dd602083018561132a565b6116ea6040830184611627565b949350505050565b6000604082019050611707600083018561132a565b6117146020830184611627565b9392505050565b600060208201905081810360008301526117358184611339565b905092915050565b60006020820190506117526000830184611397565b92915050565b600060808201905061176d60008301876113a6565b61177a602083018661164d565b61178760408301856113a6565b61179460608301846113a6565b95945050505050565b600060208201905081810360008301526117b6816113b5565b9050919050565b600060208201905081810360008301526117d68161141b565b9050919050565b600060208201905081810360008301526117f68161145b565b9050919050565b60006020820190508181036000830152611816816114c1565b9050919050565b6000602082019050818103600083015261183681611501565b9050919050565b6000602082019050818103600083015261185681611541565b9050919050565b6000602082019050818103600083015261187681611581565b9050919050565b60006020820190508181036000830152611896816115c1565b9050919050565b60006060820190506118b26000830186611627565b6118bf6020830185611627565b6118cc60408301846113a6565b949350505050565b6000819050602082019050919050565b600081519050919050565b6000602082019050919050565b600082825260208201905092915050565b600082825260208201905092915050565b6000611929826119f0565b9150611934836119f0565b9250827fffffffffffffffffffffffffffffffffffffffffffffffffffffffffffffffff0382111561196957611968611a5a565b5b828201905092915050565b600061197f826119f0565b915061198a836119f0565b92508282101561199d5761199c611a5a565b5b828203905092915050565b60006119b3826119d0565b9050919050565b60008115159050919050565b6000819050919050565b600073ffffffffffffffffffffffffffffffffffffffff82169050919050565b6000819050919050565b600060ff82169050919050565b6000611a12826119f0565b91507fffffffffffffffffffffffffffffffffffffffffffffffffffffffffffffffff821415611a4557611a44611a5a565b5b600182019050919050565b6000819050919050565b7f4e487b7100000000000000000000000000000000000000000000000000000000600052601160045260246000fd5b611a92816119a8565b8114611a9d57600080fd5b50565b611aa9816119ba565b8114611ab457600080fd5b50565b611ac0816119c6565b8114611acb57600080fd5b50565b611ad7816119f0565b8114611ae257600080fd5b50565b611aee816119fa565b8114611af957600080fd5b5056fea26469706673582212204496dd638694b1fa7d00a3bb5407e6327d2ed8a000a8f39d5e3af38706a0687764736f6c63430008000033",
  "immutableReferences": {},
  "source": "// SPDX-License-Identifier: MIT\npragma solidity ^0.8.0;\nimport \"./Ownable.sol\";\n\ninterface IERC20 {\n    function transfer(address recipient, uint256 amount)\n        external\n        returns (bool);\n\n    function allowance(address owner, address spender)\n        external\n        view\n        returns (uint256);\n\n    function transferFrom(\n        address sender,\n        address recipient,\n        uint256 amount\n    ) external returns (bool);\n\n    event Transfer(address indexed from, address indexed to, uint256 value);\n\n    event Approval(\n        address indexed owner,\n        address indexed spender,\n        uint256 value\n    );\n}\n\n/// @title   Network Bridge\n/// @author chandrashekhar\n/// @notice You can use this contract for transfer token between two blockchain networks\n/// @dev All function calls are currently implemented without side effects\n\ncontract Bridge is Ownable {\n    IERC20 irc20Token;\n\n    address signer; // signer\n    mapping(uint256 => bool) public processNonce; // processNonce gose inside the mapping\n    mapping(bytes32 => bool) public processSecretData; // processSecretData\n    address[] public availableTokens; // availableTokens;\n\n    event TransferToken(\n        address indexed sender,\n        address indexed receiver,\n        uint256 amount,\n        uint256 nonce,\n        bytes32 secretData\n    );\n    event WithdrawToken(\n        address indexed from,\n        address indexed receiver,\n        uint256 amount,\n        uint256 nonces,\n        bytes32 secretData\n    );\n\n    event AddnewToken(address indexed tokenAddress);\n    event RemoveToken(address indexed tokenAddress);\n\n    constructor(address _signer) {\n        signer = _signer;\n    }\n\n    /// @notice Add the new token to bridge\n    /// @dev This function calls onlyOwner to add the new token address in future\n    /// @param _token The addresss of newly token\n\n    function addIRC20Token(address _token) public onlyOwner {\n        require(!tokenExists(_token), \"this token already in list\");\n        availableTokens.push(_token);\n        emit AddnewToken(_token);\n    }\n\n    /// @notice remove the  token from bridge\n    /// @dev This function calls onlyOwner to remove the  token address in future\n    /// @param _token The addresss of  token to remove\n\n    function removeIRC20Token(address _token) public onlyOwner {\n        if (availableTokens.length > 1) {\n            for (uint256 i = 0; i < availableTokens.length; i++) {\n                if (availableTokens[i] == _token) {\n                    availableTokens[i] = availableTokens[\n                        availableTokens.length - 1\n                    ];\n                    availableTokens.pop();\n                    emit RemoveToken(_token);\n                }\n            }\n        }\n    }\n\n    function getAvailableTokens() public view returns (address[] memory) {\n        return availableTokens;\n    }\n\n    function tokenExists(address _token) public view returns (bool) {\n        if (availableTokens.length > 1) {\n            for (uint256 i = 0; i < availableTokens.length; i++) {\n                if (availableTokens[i] == _token) {\n                    return true;\n                }\n            }\n            return false;\n        }\n    }\n\n    /// @notice transfer the  token from bridge one network to the other network\n    /// @dev This function call by any public user\n    /// @param from _amount .selectedToeken, _nonce\n\n    function transferToken(\n        address from,\n        uint256 _amount,\n        address fromToken,\n        uint256 _nonce\n    ) public {\n        irc20Token = IERC20(fromToken);\n\n        require(tokenExists(fromToken), \"This token is not available\");\n\n        require(\n            processNonce[_nonce] == false,\n            \"This nonce is already in proccess \"\n        );\n        require(\n            irc20Token.allowance(from, address(this)) == _amount,\n            \"insufficent amount allowance\"\n        );\n\n        bytes32 _secretData = keccak256(\n            abi.encodePacked(((block.timestamp + _amount + _nonce)))\n        );\n\n        irc20Token.transferFrom(from, address(this), _amount);\n        processNonce[_nonce] = true;\n        emit TransferToken(from, address(this), _amount, _nonce, _secretData);\n    }\n\n    /// @notice Redeem the  token from bridge to the other network\n    /// @dev This function call by any public user who transfer the token form the other network using bridge\n    /// @param from  ,to, _amount, nonce,secretData,messageHash,v,r,s,selectedToken\n\n    function RedeemToken(\n        address from,\n        address to,\n        uint256 amount,\n        uint256 nonce,\n        bytes32 secretData,\n        bytes32 messageHash,\n        uint8 v,\n        bytes32 r,\n        bytes32 s,\n        address selectedToken\n    ) public {\n        irc20Token = IERC20(selectedToken);\n        require(tokenExists(selectedToken), \"This token is not available\");\n        require(processNonce[nonce] == false, \"This nonce Already process \");\n        require(\n            ecrecover(messageHash, v, r, s) == signer,\n            \"The amount or vrs is not correct \"\n        );\n        irc20Token.transfer(to, amount);\n        emit WithdrawToken(from, to, amount, nonce, secretData);\n        processNonce[nonce] = true;\n        processSecretData[secretData] = true;\n    }\n}\n",
  "sourcePath": "/home/dell/Desktop/Project-webllisto/Network-bridge-kly-eth/contracts/Bridge.sol",
  "compiler": {
    "name": "solc",
    "version": "0.8.0+commit.c7dfd78e.Emscripten.clang"
  },
  "schemaVersion": "3.4.2",
  "updatedAt": "2021-12-06T14:10:25.552Z",
  "networkType": "ethereum",
  "devdoc": {
    "author": "chandrashekhar",
    "details": "All function calls are currently implemented without side effects",
    "kind": "dev",
    "methods": {
      "RedeemToken(address,address,uint256,uint256,bytes32,bytes32,uint8,bytes32,bytes32,address)": {
        "details": "This function call by any public user who transfer the token form the other network using bridge",
        "params": {
          "from": ",to, _amount, nonce,secretData,messageHash,v,r,s,selectedToken"
        }
      },
      "addIRC20Token(address)": {
        "details": "This function calls onlyOwner to add the new token address in future",
        "params": {
          "_token": "The addresss of newly token"
        }
      },
      "isOwner()": {
        "details": "Returns true if the caller is the current owner."
      },
      "owner()": {
        "details": "Returns the address of the current owner."
      },
      "removeIRC20Token(address)": {
        "details": "This function calls onlyOwner to remove the  token address in future",
        "params": {
          "_token": "The addresss of  token to remove"
        }
      },
      "transferOwnership(address)": {
        "details": "Transfers ownership of the contract to a new account (`newOwner`). Can only be called by the current owner."
      },
      "transferToken(address,uint256,address,uint256)": {
        "details": "This function call by any public user",
        "params": {
          "from": "_amount .selectedToeken, _nonce"
        }
      }
    },
    "title": "Network Bridge",
    "version": 1
  },
  "userdoc": {
    "kind": "user",
    "methods": {
      "RedeemToken(address,address,uint256,uint256,bytes32,bytes32,uint8,bytes32,bytes32,address)": {
        "notice": "Redeem the  token from bridge to the other network"
      },
      "addIRC20Token(address)": {
        "notice": "Add the new token to bridge"
      },
      "removeIRC20Token(address)": {
        "notice": "remove the  token from bridge"
      },
      "transferToken(address,uint256,address,uint256)": {
        "notice": "transfer the  token from bridge one network to the other network"
      }
    },
    "notice": "You can use this contract for transfer token between two blockchain networks",
    "version": 1
  }
}