{
  "contractName": "Bridge",
  "abi": [
    {
      "inputs": [
        {
          "internalType": "address",
          "name": "_signer",
          "type": "address"
        }
      ],
      "stateMutability": "nonpayable",
      "type": "constructor"
    },
    {
      "anonymous": false,
      "inputs": [
        {
          "indexed": true,
          "internalType": "address",
          "name": "tokenAddress",
          "type": "address"
        }
      ],
      "name": "AddnewToken",
      "type": "event"
    },
    {
      "anonymous": false,
      "inputs": [
        {
          "indexed": true,
          "internalType": "address",
          "name": "from",
          "type": "address"
        },
        {
          "indexed": true,
          "internalType": "address",
          "name": "receiver",
          "type": "address"
        },
        {
          "indexed": false,
          "internalType": "uint256",
          "name": "amount",
          "type": "uint256"
        },
        {
          "indexed": false,
          "internalType": "uint256",
          "name": "nonces",
          "type": "uint256"
        }
      ],
      "name": "RedeemToken",
      "type": "event"
    },
    {
      "anonymous": false,
      "inputs": [
        {
          "indexed": true,
          "internalType": "address",
          "name": "tokenAddress",
          "type": "address"
        }
      ],
      "name": "RemoveToken",
      "type": "event"
    },
    {
      "anonymous": false,
      "inputs": [
        {
          "indexed": true,
          "internalType": "address",
          "name": "sender",
          "type": "address"
        },
        {
          "indexed": true,
          "internalType": "address",
          "name": "fromToken",
          "type": "address"
        },
        {
          "indexed": false,
          "internalType": "uint256",
          "name": "amount",
          "type": "uint256"
        },
        {
          "indexed": false,
          "internalType": "uint256",
          "name": "nonce",
          "type": "uint256"
        },
        {
          "indexed": false,
          "internalType": "uint256",
          "name": "transferTime",
          "type": "uint256"
        }
      ],
      "name": "TransferToken",
      "type": "event"
    },
    {
      "inputs": [
        {
          "internalType": "uint256",
          "name": "",
          "type": "uint256"
        }
      ],
      "name": "availableTokens",
      "outputs": [
        {
          "internalType": "address",
          "name": "",
          "type": "address"
        }
      ],
      "stateMutability": "view",
      "type": "function",
      "constant": true
    },
    {
      "inputs": [],
      "name": "isOwner",
      "outputs": [
        {
          "internalType": "bool",
          "name": "",
          "type": "bool"
        }
      ],
      "stateMutability": "view",
      "type": "function",
      "constant": true
    },
    {
      "inputs": [],
      "name": "owner",
      "outputs": [
        {
          "internalType": "address",
          "name": "",
          "type": "address"
        }
      ],
      "stateMutability": "view",
      "type": "function",
      "constant": true
    },
    {
      "inputs": [
        {
          "internalType": "uint256",
          "name": "",
          "type": "uint256"
        }
      ],
      "name": "processNonce",
      "outputs": [
        {
          "internalType": "bool",
          "name": "",
          "type": "bool"
        }
      ],
      "stateMutability": "view",
      "type": "function",
      "constant": true
    },
    {
      "inputs": [
        {
          "internalType": "address",
          "name": "newOwner",
          "type": "address"
        }
      ],
      "name": "transferOwnership",
      "outputs": [],
      "stateMutability": "nonpayable",
      "type": "function"
    },
    {
      "inputs": [
        {
          "internalType": "address",
          "name": "_token",
          "type": "address"
        }
      ],
      "name": "addIRC20Token",
      "outputs": [],
      "stateMutability": "nonpayable",
      "type": "function"
    },
    {
      "inputs": [
        {
          "internalType": "address",
          "name": "_token",
          "type": "address"
        }
      ],
      "name": "removeIRC20Token",
      "outputs": [],
      "stateMutability": "nonpayable",
      "type": "function"
    },
    {
      "inputs": [],
      "name": "getAvailableTokens",
      "outputs": [
        {
          "internalType": "address[]",
          "name": "",
          "type": "address[]"
        }
      ],
      "stateMutability": "view",
      "type": "function",
      "constant": true
    },
    {
      "inputs": [
        {
          "internalType": "address",
          "name": "_token",
          "type": "address"
        }
      ],
      "name": "tokenExists",
      "outputs": [
        {
          "internalType": "bool",
          "name": "exist",
          "type": "bool"
        }
      ],
      "stateMutability": "view",
      "type": "function",
      "constant": true
    },
    {
      "inputs": [
        {
          "internalType": "address",
          "name": "from",
          "type": "address"
        },
        {
          "internalType": "uint256",
          "name": "_amount",
          "type": "uint256"
        },
        {
          "internalType": "address",
          "name": "fromToken",
          "type": "address"
        }
      ],
      "name": "transferToken",
      "outputs": [],
      "stateMutability": "nonpayable",
      "type": "function"
    },
    {
      "inputs": [
        {
          "internalType": "address",
          "name": "from",
          "type": "address"
        },
        {
          "internalType": "address",
          "name": "to",
          "type": "address"
        },
        {
          "internalType": "uint256",
          "name": "amount",
          "type": "uint256"
        },
        {
          "internalType": "uint256",
          "name": "_nonce",
          "type": "uint256"
        },
        {
          "internalType": "bytes32",
          "name": "messageHash",
          "type": "bytes32"
        },
        {
          "internalType": "uint8",
          "name": "v",
          "type": "uint8"
        },
        {
          "internalType": "bytes32",
          "name": "r",
          "type": "bytes32"
        },
        {
          "internalType": "bytes32",
          "name": "s",
          "type": "bytes32"
        },
        {
          "internalType": "address",
          "name": "selectedToken",
          "type": "address"
        }
      ],
      "name": "redeemToken",
      "outputs": [],
      "stateMutability": "nonpayable",
      "type": "function"
    }
  ],
  "bytecode": "0x60806040523480156200001157600080fd5b5060405162001a5c38038062001a5c8339818101604052810190620000379190620000d6565b336000806101000a81548173ffffffffffffffffffffffffffffffffffffffff021916908373ffffffffffffffffffffffffffffffffffffffff16021790555080600360006101000a81548173ffffffffffffffffffffffffffffffffffffffff021916908373ffffffffffffffffffffffffffffffffffffffff1602179055505062000150565b600081519050620000d08162000136565b92915050565b600060208284031215620000e957600080fd5b6000620000f984828501620000bf565b91505092915050565b60006200010f8262000116565b9050919050565b600073ffffffffffffffffffffffffffffffffffffffff82169050919050565b620001418162000102565b81146200014d57600080fd5b50565b6118fc80620001606000396000f3fe608060405234801561001057600080fd5b50600436106100a95760003560e01c8063b33f78ca11610071578063b33f78ca14610152578063bcf4796a14610182578063dd7f52881461019e578063e35568cb146101ce578063f2fde38b146101ec578063f640d50814610208576100a9565b8063600ecdee146100ae57806387f6cb6a146100ca5780638da5cb5b146100e65780638f32d59b14610104578063ad64d06814610122575b600080fd5b6100c860048036038101906100c39190610fad565b610224565b005b6100e460048036038101906100df9190610fad565b6104e1565b005b6100ee61061a565b6040516100fb9190611442565b60405180910390f35b61010c610643565b6040516101199190611508565b60405180910390f35b61013c60048036038101906101379190611114565b61069a565b6040516101499190611442565b60405180910390f35b61016c60048036038101906101679190610fad565b6106d9565b6040516101799190611508565b60405180910390f35b61019c60048036038101906101979190610fd6565b6107bd565b005b6101b860048036038101906101b39190611114565b610ad9565b6040516101c59190611508565b60405180910390f35b6101d6610af9565b6040516101e391906114e6565b60405180910390f35b61020660048036038101906102019190610fad565b610b87565b005b610222600480360381019061021d919061109c565b610c81565b005b61022c610643565b61026b576040517f08c379a0000000000000000000000000000000000000000000000000000000008152600401610262906115e8565b60405180910390fd5b6001600580549050106104de5760005b6005805490508110156104dc578173ffffffffffffffffffffffffffffffffffffffff16600582815481106102d9577f4e487b7100000000000000000000000000000000000000000000000000000000600052603260045260246000fd5b9060005260206000200160009054906101000a900473ffffffffffffffffffffffffffffffffffffffff1673ffffffffffffffffffffffffffffffffffffffff1614156104c957600560016005805490506103349190611748565b8154811061036b577f4e487b7100000000000000000000000000000000000000000000000000000000600052603260045260246000fd5b9060005260206000200160009054906101000a900473ffffffffffffffffffffffffffffffffffffffff16600582815481106103d0577f4e487b7100000000000000000000000000000000000000000000000000000000600052603260045260246000fd5b9060005260206000200160006101000a81548173ffffffffffffffffffffffffffffffffffffffff021916908373ffffffffffffffffffffffffffffffffffffffff1602179055506005805480610450577f4e487b7100000000000000000000000000000000000000000000000000000000600052603160045260246000fd5b6001900381819060005260206000200160006101000a81549073ffffffffffffffffffffffffffffffffffffffff021916905590558173ffffffffffffffffffffffffffffffffffffffff167f4eb129c82dcd3eedb52df2b0e6fb4cfa41ac64ee9d63ff081acbb1877e85d79b60405160405180910390a25b80806104d4906117db565b91505061027b565b505b50565b6104e9610643565b610528576040517f08c379a000000000000000000000000000000000000000000000000000000000815260040161051f906115e8565b60405180910390fd5b610531816106d9565b15610571576040517f08c379a000000000000000000000000000000000000000000000000000000000815260040161056890611608565b60405180910390fd5b6005819080600181540180825580915050600190039060005260206000200160009091909190916101000a81548173ffffffffffffffffffffffffffffffffffffffff021916908373ffffffffffffffffffffffffffffffffffffffff1602179055508073ffffffffffffffffffffffffffffffffffffffff167fa9e02beb94952d5fb6ea8aaf6dfac47e027aa383eeaad0c831bcf0d73c12e14660405160405180910390a250565b60008060009054906101000a900473ffffffffffffffffffffffffffffffffffffffff16905090565b60008060009054906101000a900473ffffffffffffffffffffffffffffffffffffffff1673ffffffffffffffffffffffffffffffffffffffff163373ffffffffffffffffffffffffffffffffffffffff1614905090565b600581815481106106aa57600080fd5b906000526020600020016000915054906101000a900473ffffffffffffffffffffffffffffffffffffffff1681565b60006001600580549050106107b75760005b6005805490508110156107ad578273ffffffffffffffffffffffffffffffffffffffff1660058281548110610749577f4e487b7100000000000000000000000000000000000000000000000000000000600052603260045260246000fd5b9060005260206000200160009054906101000a900473ffffffffffffffffffffffffffffffffffffffff1673ffffffffffffffffffffffffffffffffffffffff16141561079a5760019150506107b8565b80806107a5906117db565b9150506106eb565b50600090506107b8565b5b919050565b80600160006101000a81548173ffffffffffffffffffffffffffffffffffffffff021916908373ffffffffffffffffffffffffffffffffffffffff160217905550610807816106d9565b610846576040517f08c379a000000000000000000000000000000000000000000000000000000000815260040161083d90611588565b60405180910390fd5b600015156004600088815260200190815260200160002060009054906101000a900460ff161515146108ad576040517f08c379a00000000000000000000000000000000000000000000000000000000081526004016108a4906115c8565b60405180910390fd5b600360009054906101000a900473ffffffffffffffffffffffffffffffffffffffff1673ffffffffffffffffffffffffffffffffffffffff16600186868686604051600081526020016040526040516109099493929190611523565b6020604051602081039080840390855afa15801561092b573d6000803e3d6000fd5b5050506020604051035173ffffffffffffffffffffffffffffffffffffffff161461098b576040517f08c379a000000000000000000000000000000000000000000000000000000000815260040161098290611628565b60405180910390fd5b600160009054906101000a900473ffffffffffffffffffffffffffffffffffffffff1673ffffffffffffffffffffffffffffffffffffffff1663a9059cbb89896040518363ffffffff1660e01b81526004016109e89291906114bd565b602060405180830381600087803b158015610a0257600080fd5b505af1158015610a16573d6000803e3d6000fd5b505050506040513d601f19601f82011682018060405250810190610a3a91906110eb565b508773ffffffffffffffffffffffffffffffffffffffff168973ffffffffffffffffffffffffffffffffffffffff167f534beb99f8e9669f300957c6fb50229092f4b264152b8d4352be665a2b395cdb8989604051610a9a929190611648565b60405180910390a360016004600088815260200190815260200160002060006101000a81548160ff021916908315150217905550505050505050505050565b60046020528060005260406000206000915054906101000a900460ff1681565b60606005805480602002602001604051908101604052809291908181526020018280548015610b7d57602002820191906000526020600020905b8160009054906101000a900473ffffffffffffffffffffffffffffffffffffffff1673ffffffffffffffffffffffffffffffffffffffff1681526020019060010190808311610b33575b5050505050905090565b610b8f610643565b610bce576040517f08c379a0000000000000000000000000000000000000000000000000000000008152600401610bc5906115e8565b60405180910390fd5b600073ffffffffffffffffffffffffffffffffffffffff168173ffffffffffffffffffffffffffffffffffffffff161415610c3e576040517f08c379a0000000000000000000000000000000000000000000000000000000008152600401610c3590611568565b60405180910390fd5b806000806101000a81548173ffffffffffffffffffffffffffffffffffffffff021916908373ffffffffffffffffffffffffffffffffffffffff16021790555050565b80600160006101000a81548173ffffffffffffffffffffffffffffffffffffffff021916908373ffffffffffffffffffffffffffffffffffffffff160217905550610ccb816106d9565b610d0a576040517f08c379a0000000000000000000000000000000000000000000000000000000008152600401610d0190611588565b60405180910390fd5b81600160009054906101000a900473ffffffffffffffffffffffffffffffffffffffff1673ffffffffffffffffffffffffffffffffffffffff1663dd62ed3e85306040518363ffffffff1660e01b8152600401610d6892919061145d565b60206040518083038186803b158015610d8057600080fd5b505afa158015610d94573d6000803e3d6000fd5b505050506040513d601f19601f82011682018060405250810190610db8919061113d565b14610df8576040517f08c379a0000000000000000000000000000000000000000000000000000000008152600401610def906115a8565b60405180910390fd5b600160009054906101000a900473ffffffffffffffffffffffffffffffffffffffff1673ffffffffffffffffffffffffffffffffffffffff166323b872dd8430856040518463ffffffff1660e01b8152600401610e5793929190611486565b602060405180830381600087803b158015610e7157600080fd5b505af1158015610e85573d6000803e3d6000fd5b505050506040513d601f19601f82011682018060405250810190610ea991906110eb565b506001600254610eb991906116f2565b6002819055503073ffffffffffffffffffffffffffffffffffffffff168373ffffffffffffffffffffffffffffffffffffffff167f40cb630222b84c5ffa21a62bffe86cb26047e15702749a6ebc057e9b26e56f928460025442604051610f2293929190611671565b60405180910390a3505050565b600081359050610f3e81611853565b92915050565b600081519050610f538161186a565b92915050565b600081359050610f6881611881565b92915050565b600081359050610f7d81611898565b92915050565b600081519050610f9281611898565b92915050565b600081359050610fa7816118af565b92915050565b600060208284031215610fbf57600080fd5b6000610fcd84828501610f2f565b91505092915050565b60008060008060008060008060006101208a8c031215610ff557600080fd5b60006110038c828d01610f2f565b99505060206110148c828d01610f2f565b98505060406110258c828d01610f6e565b97505060606110368c828d01610f6e565b96505060806110478c828d01610f59565b95505060a06110588c828d01610f98565b94505060c06110698c828d01610f59565b93505060e061107a8c828d01610f59565b92505061010061108c8c828d01610f2f565b9150509295985092959850929598565b6000806000606084860312156110b157600080fd5b60006110bf86828701610f2f565b93505060206110d086828701610f6e565b92505060406110e186828701610f2f565b9150509250925092565b6000602082840312156110fd57600080fd5b600061110b84828501610f44565b91505092915050565b60006020828403121561112657600080fd5b600061113484828501610f6e565b91505092915050565b60006020828403121561114f57600080fd5b600061115d84828501610f83565b91505092915050565b6000611172838361117e565b60208301905092915050565b6111878161177c565b82525050565b6111968161177c565b82525050565b60006111a7826116b8565b6111b181856116d0565b93506111bc836116a8565b8060005b838110156111ed5781516111d48882611166565b97506111df836116c3565b9250506001810190506111c0565b5085935050505092915050565b6112038161178e565b82525050565b6112128161179a565b82525050565b60006112256026836116e1565b91507f4f776e61626c653a206e6577206f776e657220697320746865207a65726f206160008301527f64647265737300000000000000000000000000000000000000000000000000006020830152604082019050919050565b600061128b601b836116e1565b91507f5468697320746f6b656e206973206e6f7420617661696c61626c6500000000006000830152602082019050919050565b60006112cb601c836116e1565b91507f696e737566666963656e7420616d6f756e7420616c6c6f77616e6365000000006000830152602082019050919050565b600061130b601b836116e1565b91507f54686973206e6f6e636520416c72656164792070726f636573732000000000006000830152602082019050919050565b600061134b6020836116e1565b91507f4f776e61626c653a2063616c6c6572206973206e6f7420746865206f776e65726000830152602082019050919050565b600061138b601a836116e1565b91507f7468697320746f6b656e20616c726561647920696e206c6973740000000000006000830152602082019050919050565b60006113cb6021836116e1565b91507f54686520616d6f756e74206f7220767273206973206e6f7420636f727265637460008301527f20000000000000000000000000000000000000000000000000000000000000006020830152604082019050919050565b61142d816117c4565b82525050565b61143c816117ce565b82525050565b6000602082019050611457600083018461118d565b92915050565b6000604082019050611472600083018561118d565b61147f602083018461118d565b9392505050565b600060608201905061149b600083018661118d565b6114a8602083018561118d565b6114b56040830184611424565b949350505050565b60006040820190506114d2600083018561118d565b6114df6020830184611424565b9392505050565b60006020820190508181036000830152611500818461119c565b905092915050565b600060208201905061151d60008301846111fa565b92915050565b60006080820190506115386000830187611209565b6115456020830186611433565b6115526040830185611209565b61155f6060830184611209565b95945050505050565b6000602082019050818103600083015261158181611218565b9050919050565b600060208201905081810360008301526115a18161127e565b9050919050565b600060208201905081810360008301526115c1816112be565b9050919050565b600060208201905081810360008301526115e1816112fe565b9050919050565b600060208201905081810360008301526116018161133e565b9050919050565b600060208201905081810360008301526116218161137e565b9050919050565b60006020820190508181036000830152611641816113be565b9050919050565b600060408201905061165d6000830185611424565b61166a6020830184611424565b9392505050565b60006060820190506116866000830186611424565b6116936020830185611424565b6116a06040830184611424565b949350505050565b6000819050602082019050919050565b600081519050919050565b6000602082019050919050565b600082825260208201905092915050565b600082825260208201905092915050565b60006116fd826117c4565b9150611708836117c4565b9250827fffffffffffffffffffffffffffffffffffffffffffffffffffffffffffffffff0382111561173d5761173c611824565b5b828201905092915050565b6000611753826117c4565b915061175e836117c4565b92508282101561177157611770611824565b5b828203905092915050565b6000611787826117a4565b9050919050565b60008115159050919050565b6000819050919050565b600073ffffffffffffffffffffffffffffffffffffffff82169050919050565b6000819050919050565b600060ff82169050919050565b60006117e6826117c4565b91507fffffffffffffffffffffffffffffffffffffffffffffffffffffffffffffffff82141561181957611818611824565b5b600182019050919050565b7f4e487b7100000000000000000000000000000000000000000000000000000000600052601160045260246000fd5b61185c8161177c565b811461186757600080fd5b50565b6118738161178e565b811461187e57600080fd5b50565b61188a8161179a565b811461189557600080fd5b50565b6118a1816117c4565b81146118ac57600080fd5b50565b6118b8816117ce565b81146118c357600080fd5b5056fea26469706673582212200e4b9ffe64d8cc6cde99cbabb97245448558e25998773d5438d071b085372e6164736f6c63430008000033",
  "immutableReferences": {},
  "source": "// SPDX-License-Identifier: MIT\npragma solidity ^0.8.0;\nimport \"./Ownable.sol\";\n\ninterface IERC20 {\n    function transfer(address recipient, uint256 amount)\n        external\n        returns (bool);\n\n    function allowance(address owner, address spender)\n        external\n        view\n        returns (uint256);\n\n    function transferFrom(\n        address sender,\n        address recipient,\n        uint256 amount\n    ) external returns (bool);\n\n    event Transfer(address indexed from, address indexed to, uint256 value);\n\n    event Approval(\n        address indexed owner,\n        address indexed spender,\n        uint256 value\n    );\n}\n\n/// @title   Network Bridge\n/// @author chandrashekhar\n/// @notice You can use this contract for transfer token between two blockchain networks\n/// @dev All function calls are currently implemented without side effects\n\ncontract Bridge is Ownable {\n    IERC20 irc20Token;\n    uint256 nonce;\n    address signer; // signer\n    mapping(uint256 => bool) public processNonce; // processNonce gose inside the mapping\n    // mapping(bytes32 => bool) public processSecretData; // processSecretData\n    address[] public availableTokens; // availableTokens;\n\n    event TransferToken(\n        address indexed sender,\n        address indexed fromToken,\n        uint256 amount,\n        uint256 nonce,\n        uint256 transferTime\n    );\n    event RedeemToken(\n        address indexed from,\n        address indexed receiver,\n        uint256 amount,\n        uint256 nonces\n    );\n\n    event AddnewToken(address indexed tokenAddress);\n    event RemoveToken(address indexed tokenAddress);\n\n    constructor(address _signer) {\n        signer = _signer;\n    }\n\n    /// @notice Add the new token to bridge\n    /// @dev This function calls onlyOwner to add the new token address in future\n    /// @param _token The addresss of newly token\n\n    function addIRC20Token(address _token) public onlyOwner {\n        require(!tokenExists(_token), \"this token already in list\");\n        availableTokens.push(_token);\n        emit AddnewToken(_token);\n    }\n\n    /// @notice remove the  token from bridge\n    /// @dev This function calls onlyOwner to remove the  token address in future\n    /// @param _token The addresss of  token to remove\n\n    function removeIRC20Token(address _token) public onlyOwner {\n        if (availableTokens.length >= 1) {\n            for (uint256 i = 0; i < availableTokens.length; i++) {\n                if (availableTokens[i] == _token) {\n                    availableTokens[i] = availableTokens[\n                        availableTokens.length - 1\n                    ];\n                    availableTokens.pop();\n                    emit RemoveToken(_token);\n                }\n            }\n        }\n    }\n\n    function getAvailableTokens() public view returns (address[] memory) {\n        return availableTokens;\n    }\n\n    function tokenExists(address _token) public view returns (bool exist) {\n        if (availableTokens.length >= 1) {\n            for (uint256 i = 0; i < availableTokens.length; i++) {\n                if (availableTokens[i] == _token) {\n                    exist = true;\n                    return exist;\n                }\n            }\n            return false;\n        }\n    }\n\n    /// @notice transfer the  token from bridge one network to the other network\n    /// @dev This function call by any public user\n    /// @param from _amount .selectedToeken, _nonce\n\n    function transferToken(\n        address from,\n        uint256 _amount,\n        address fromToken\n    ) public {\n        irc20Token = IERC20(fromToken);\n\n        require(tokenExists(fromToken), \"This token is not available\");\n\n        require(\n            irc20Token.allowance(from, address(this)) == _amount,\n            \"insufficent amount allowance\"\n        );\n\n        // bytes32 _secretData = keccak256(\n        //     abi.encodePacked(((block.timestamp + _amount + nonce)))\n        // );\n\n        irc20Token.transferFrom(from, address(this), _amount);\n        nonce = nonce + 1;\n\n        emit TransferToken(\n            from,\n            address(this),\n            _amount,\n            nonce,\n            block.timestamp\n        );\n    }\n\n    /// @notice Redeem the  token from bridge to the other network\n    /// @dev This function call by any public user who transfer the token form the other network using bridge\n    /// @param from  ,to, _amount, nonce,secretData,messageHash,v,r,s,selectedToken\n\n    function redeemToken(\n        address from,\n        address to,\n        uint256 amount,\n        uint256 _nonce,\n        bytes32 messageHash,\n        uint8 v,\n        bytes32 r,\n        bytes32 s,\n        address selectedToken\n    ) public {\n        irc20Token = IERC20(selectedToken);\n        require(tokenExists(selectedToken), \"This token is not available\");\n        require(processNonce[_nonce] == false, \"This nonce Already process \");\n        require(\n            ecrecover(messageHash, v, r, s) == signer,\n            \"The amount or vrs is not correct \"\n        );\n        irc20Token.transfer(to, amount);\n        emit RedeemToken(from, to, amount, _nonce);\n        processNonce[_nonce] = true;\n    }\n}\n",
  "sourcePath": "/home/dell/Desktop/Project-webllisto/Network-bridge-kly-eth/contracts/Bridge.sol",
  "compiler": {
    "name": "solc",
    "version": "0.8.0+commit.c7dfd78e.Emscripten.clang"
  },
  "schemaVersion": "3.4.2",
  "updatedAt": "2021-12-13T11:05:40.404Z",
  "networkType": "ethereum",
  "devdoc": {
    "author": "chandrashekhar",
    "details": "All function calls are currently implemented without side effects",
    "kind": "dev",
    "methods": {
      "addIRC20Token(address)": {
        "details": "This function calls onlyOwner to add the new token address in future",
        "params": {
          "_token": "The addresss of newly token"
        }
      },
      "isOwner()": {
        "details": "Returns true if the caller is the current owner."
      },
      "owner()": {
        "details": "Returns the address of the current owner."
      },
      "redeemToken(address,address,uint256,uint256,bytes32,uint8,bytes32,bytes32,address)": {
        "details": "This function call by any public user who transfer the token form the other network using bridge",
        "params": {
          "from": ",to, _amount, nonce,secretData,messageHash,v,r,s,selectedToken"
        }
      },
      "removeIRC20Token(address)": {
        "details": "This function calls onlyOwner to remove the  token address in future",
        "params": {
          "_token": "The addresss of  token to remove"
        }
      },
      "transferOwnership(address)": {
        "details": "Transfers ownership of the contract to a new account (`newOwner`). Can only be called by the current owner."
      },
      "transferToken(address,uint256,address)": {
        "details": "This function call by any public user",
        "params": {
          "from": "_amount .selectedToeken, _nonce"
        }
      }
    },
    "title": "Network Bridge",
    "version": 1
  },
  "userdoc": {
    "kind": "user",
    "methods": {
      "addIRC20Token(address)": {
        "notice": "Add the new token to bridge"
      },
      "redeemToken(address,address,uint256,uint256,bytes32,uint8,bytes32,bytes32,address)": {
        "notice": "Redeem the  token from bridge to the other network"
      },
      "removeIRC20Token(address)": {
        "notice": "remove the  token from bridge"
      },
      "transferToken(address,uint256,address)": {
        "notice": "transfer the  token from bridge one network to the other network"
      }
    },
    "notice": "You can use this contract for transfer token between two blockchain networks",
    "version": 1
  }
}