{
  "contractName": "Ownable",
  "abi": [
    {
      "inputs": [],
      "stateMutability": "nonpayable",
      "type": "constructor"
    },
    {
      "inputs": [],
      "name": "owner",
      "outputs": [
        {
          "internalType": "address",
          "name": "",
          "type": "address"
        }
      ],
      "stateMutability": "view",
      "type": "function"
    },
    {
      "inputs": [],
      "name": "isOwner",
      "outputs": [
        {
          "internalType": "bool",
          "name": "",
          "type": "bool"
        }
      ],
      "stateMutability": "view",
      "type": "function"
    },
    {
      "inputs": [
        {
          "internalType": "address",
          "name": "newOwner",
          "type": "address"
        }
      ],
      "name": "transferOwnership",
      "outputs": [],
      "stateMutability": "nonpayable",
      "type": "function"
    }
  ],
  "bytecode": "0x608060405234801561001057600080fd5b50336000806101000a81548173ffffffffffffffffffffffffffffffffffffffff021916908373ffffffffffffffffffffffffffffffffffffffff16021790555061042c806100606000396000f3fe608060405234801561001057600080fd5b50600436106100415760003560e01c80638da5cb5b146100465780638f32d59b14610064578063f2fde38b14610082575b600080fd5b61004e61009e565b60405161005b919061031a565b60405180910390f35b61006c6100c7565b6040516100799190610335565b60405180910390f35b61009c6004803603810190610097919061022d565b61011e565b005b60008060009054906101000a900473ffffffffffffffffffffffffffffffffffffffff16905090565b60008060009054906101000a900473ffffffffffffffffffffffffffffffffffffffff1673ffffffffffffffffffffffffffffffffffffffff163373ffffffffffffffffffffffffffffffffffffffff1614905090565b6101266100c7565b610165576040517f08c379a000000000000000000000000000000000000000000000000000000000815260040161015c90610370565b60405180910390fd5b600073ffffffffffffffffffffffffffffffffffffffff168173ffffffffffffffffffffffffffffffffffffffff1614156101d5576040517f08c379a00000000000000000000000000000000000000000000000000000000081526004016101cc90610350565b60405180910390fd5b806000806101000a81548173ffffffffffffffffffffffffffffffffffffffff021916908373ffffffffffffffffffffffffffffffffffffffff16021790555050565b600081359050610227816103df565b92915050565b60006020828403121561023f57600080fd5b600061024d84828501610218565b91505092915050565b61025f816103a1565b82525050565b61026e816103b3565b82525050565b6000610281602683610390565b91507f4f776e61626c653a206e6577206f776e657220697320746865207a65726f206160008301527f64647265737300000000000000000000000000000000000000000000000000006020830152604082019050919050565b60006102e7602083610390565b91507f4f776e61626c653a2063616c6c6572206973206e6f7420746865206f776e65726000830152602082019050919050565b600060208201905061032f6000830184610256565b92915050565b600060208201905061034a6000830184610265565b92915050565b6000602082019050818103600083015261036981610274565b9050919050565b60006020820190508181036000830152610389816102da565b9050919050565b600082825260208201905092915050565b60006103ac826103bf565b9050919050565b60008115159050919050565b600073ffffffffffffffffffffffffffffffffffffffff82169050919050565b6103e8816103a1565b81146103f357600080fd5b5056fea26469706673582212209b44d886edf05a3a9d0bae9bc753dbf7d8bf8f5f88c8e430a28c1c12e020574364736f6c63430008000033",
  "immutableReferences": {},
  "source": "pragma solidity ^0.8.0;\n\n/**\n * @dev Contract module which provides a basic access control mechanism, where\n * there is an account (an owner) that can be granted exclusive access to\n * specific functions.\n *\n * This module is used through inheritance. It will make available the modifier\n * `onlyOwner`, which can be applied to your functions to restrict their use to\n * the owner.\n */\ncontract Ownable {\n    address private _owner;\n\n    // event OwnershipTransferred(address indexed previousOwner, address indexed newOwner);\n\n    /**\n     * @dev Initializes the contract setting the deployer as the initial owner.\n     */\n    constructor() {\n        // address msgSender = _msgSender();\n        _owner = msg.sender;\n        // emit OwnershipTransferred(address(0), msg.sender);\n    }\n\n    /**\n     * @dev Returns the address of the current owner.\n     */\n    function owner() public view returns (address) {\n        return _owner;\n    }\n\n    /**\n     * @dev Throws if called by any account other than the owner.\n     */\n    modifier onlyOwner() {\n        require(isOwner(), \"Ownable: caller is not the owner\");\n        _;\n    }\n\n    /**\n     * @dev Returns true if the caller is the current owner.\n     */\n    function isOwner() public view returns (bool) {\n        return msg.sender == _owner;\n    }\n\n    /**\n     * @dev Transfers ownership of the contract to a new account (`newOwner`).\n     * Can only be called by the current owner.\n     */\n    function transferOwnership(address newOwner) public onlyOwner {\n        require(\n            newOwner != address(0),\n            \"Ownable: new owner is the zero address\"\n        );\n        // emit OwnershipTransferred(_owner, newOwner);\n        _owner = newOwner;\n    }\n}\n",
  "sourcePath": "/home/dell/Desktop/Project-webllisto/Network-bridge-kly-eth/contracts/Ownable.sol",
  "compiler": {
    "name": "solc",
    "version": "0.8.0+commit.c7dfd78e.Emscripten.clang"
  },
  "schemaVersion": "3.4.2",
  "updatedAt": "2021-12-10T14:29:40.351Z",
  "devdoc": {
    "details": "Contract module which provides a basic access control mechanism, where there is an account (an owner) that can be granted exclusive access to specific functions. This module is used through inheritance. It will make available the modifier `onlyOwner`, which can be applied to your functions to restrict their use to the owner.",
    "kind": "dev",
    "methods": {
      "constructor": {
        "details": "Initializes the contract setting the deployer as the initial owner."
      },
      "isOwner()": {
        "details": "Returns true if the caller is the current owner."
      },
      "owner()": {
        "details": "Returns the address of the current owner."
      },
      "transferOwnership(address)": {
        "details": "Transfers ownership of the contract to a new account (`newOwner`). Can only be called by the current owner."
      }
    },
    "version": 1
  },
  "userdoc": {
    "kind": "user",
    "methods": {},
    "version": 1
  }
}